:020000021000EC
:10B000000040002035F1010075F1010077F10100E9
:10B010000000000000000000000000000000000030
:10B0200000000000000000000000000079F10100B5
:10B0300000000000000000007BF101007DF1010034
:10B040007FF101007FF1010015C601000DD0010064
:10B050007FF1010000000000F1C001007FF101005C
:10B06000BDC7010071C801007FF101007FF101003F
:10B070007FF101007FF101007FF101007FF101000C
:10B080007FF101000DB501007FF101007FF10100AA
:10B09000E9B501007FF10100A5F001007FF1010099
:10B0A0007FF101007FF101000000000000000000BE
:10B0B0000000000000000000000000000000000090
:10B0C000054B0648033310B51B1A062B03D9044B56
:10B0D000002B00D0984710BDFC180020FC18002061
:10B0E000000000000648074910B5091A8910CB0F67
:10B0F0005918491003D0044B002B00D0984710BDBD
:10B10000FC180020FC1800200000000010B5074CBF
:10B110002378002B09D1FFF7D3FF054B002B02D07A
:10B12000044800E000BF0123237010BDFC1800207C
:10B130000000000078FC0100094B10B5002B03D083
:10B140000849094800E000BF08480368002B02D105
:10B15000FFF7C8FF10BD064B002BF9D09847F7E763
:10B16000000000000019002078FC0100F818002001
:10B1700000000000164B002B00D1144B9D464022CE
:10B1800092029A1A924600218B460F461348144A9F
:10B19000121A00F067F80F4B002B00D098470E4BA7
:10B1A000002B00D098470020002104000D000D481E
:10B1B000002802D00C4800E000BF00F02DF820006D
:10B1C000290003F085F900F011F8C04600000800DE
:10B1D000004000200000000000000000FC180020DB
:10B1E0000C1D00200000000000000000084B10B5FE
:10B1F0000400002B02D0002100E000BF054B1868BE
:10B20000836A002B00D09847200000F033F8C04636
:10B210000000000008FA01000E4B70B500251E006A
:10B220000D4CE41AA410A54204D0AB00F358984783
:10B230000135F8E704F0DAFB084B00251E00084C46
:10B24000E41AA410A54204D0AB00F3589847013586
:10B25000F8E770BDF0180020F0180020F01800206A
:10B26000F418002003008218934202D019700133B1
:10B27000FAE77047FEE7C046F0B54E4657464546EA
:10B28000E0B4214B1978994600292AD01F4B00259C
:10B2900098461F4B1F4F01269A4603E00135EDB239
:10B2A0008D421ED243461B6832009C46EC0064442B
:10B2B00020783B6882401342F0D093433B6000F01B
:10B2C0000DFF330022785146934009680B4001007E
:10B2D00091408B420AD04B4601351978EDB28D4230
:10B2E000E0D31CBC90469946A246F0BD6368002B93
:10B2F000F1D0617801394C424C41211A4C424C4109
:10B300001000E1B29847E6E7201900201C19002040
:10B310004419002048190020F8B5124D07002800F4
:10B3200000F0D6FC002807D10124BC400E4E336843
:10B33000234202D0A3433360F8BD380000F0CEFEB4
:10B340000A4A136800280BD0234313603368002295
:10B350001C43074B28001968346000F037FCEBE70A
:10B36000A343F2E7241900204819002044190020C3
:10B3700018190020F0B54F464646C0B41400070027
:10B3800083B00E000720042A04D803B00CBC9046FA
:10B390009946F0BD00F094FD00282FD01A4B1B4AAF
:10B3A0001F601B4B751E1E701A4BEDB21C600023F4
:10B3B0001360194A1360002E1AD0184B01AC99463D
:10B3C00003230026984600E01D004246EB00FB18D0
:10B3D0002270A670E6709A781878627021004A464A
:10B3E00000F078FD0028D0D16B1EDBB2002DEBD130
:10B3F0000B4A00210B4800F0CFFBC6E700F02CFD04
:10B400000028CBD0C1E7C0461C19002044190020F9
:10B4100020190020181900204819002019B3010034
:10B4200079B201000CFA010070B5094D2B78002BA0
:10B430000BD00024074E3268E300985C012100F035
:10B44000F9FD2B780134A342F5D8002070BDC04629
:10B45000201900201C190020002300B585B001AA86
:10B460009060002103481380536000F005F805B098
:10B4700000BDC04601400000BFF34F8F034A044B9C
:10B48000DA60BFF34F8FC046FDE7C0460400FA05FF
:10B4900000ED00E080218023184A8902D1508022EB
:10B4A000D221174B520289005A5040395A5001227A
:10B4B0002F205A600138C046C046C046C046C0462C
:10B4C000C046C046C046C046C046C046C046F1D190
:10B4D0009A6000230B4A2F2013600138C046C046F3
:10B4E000C046C046C046C046C046C046C046C0462C
:10B4F000C046C046F1D1044A1370704700E100E035
:10B50000001001404C1900206C190020A021F0B55A
:10B51000002347462B4A490080B45350043153500E
:10B5200004315350043153504C395350043153506B
:10B53000254B1B68002B35D024490026525824493E
:10B54000244F0C68141B00222402240A904602E0B7
:10B55000002D18D02B001A68A24214D8A41AB618CD
:10B560001A7CDD69002AF3D0424699691A745A6937
:10B570003B68002B19D0100098470028E8D0FFF74F
:10B580006BFF002DE6D1144B14491A780B789A42C0
:10B590000ED0134A9B009E5080218023114A4903FC
:10B5A0005B00D15004BC9046F0BD08009047CFE747
:10B5B0000132D3B2022B01D00B70EAE700230B70EB
:10B5C000E7E7C046001001405019002004050000C4
:10B5D0004C19002054190020601900206119002026
:10B5E0006419002000E100E0F0B55F4656464D4684
:10B5F0004446F0B4C54BC64A1B68C6498BB0059398
:10B6000009781378994200D157E10133DBB2022B5C
:10B6100000D100231370C04A9B009B58BB4A9A4636
:10B62000059B53441B021B0A136001230193BB4B70
:10B6300000241B689B46BA4B5A461B78914619005A
:10B640000393B84B88461B6847460493AF4B013FB2
:10B650001B680793B44B1B78099300239C46069301
:10B660000893FBB266469846FF2B32D04346D8007B
:10B67000049B9C46130060440178457800961A00AC
:10B68000A9421FD046684A00B44652188678013154
:10B69000D200C9B262448E4200D1EDE01678022E8B
:10B6A00000D1C7E0032EEAD1002BE8D01C74DB697F
:10B6B000002BFBD1013345780093002399461A00F3
:10B6C000A942DFD14746013FFBB2009E9846FF2BBF
:10B6D000CCD1089BC8460292B446002B00D0F0E0C3
:10B6E000069B002B02D0894B079A1A606346002BF9
:10B6F00002D04246894B1A60019B002B00D02DE1FD
:10B700005B46029A00259B1A5A1E9341DBB20593B1
:10B710007E4B00271B6802999C46804B1B689B460A
:10B72000814B1B78069300230193804B994601239C
:10B730000093039B013BDBB20393FF2B00D1F9E0A5
:10B74000049ADB0092460E009A44002D28D06A68C5
:10B75000A9682C00ED696346D31A1B021B0A4B45EE
:10B7600052D86A4612785B1823606760A76022741B
:10B77000E761002E58D031683000994205D3B9E016
:10B780001168994200D3A3E01000C2695B1A002A35
:10B79000F6D1E26132002360C4611600002DD6D1DB
:10B7A00053461A785B7831009342C2D051464968BB
:10B7B0005300884651469B180132D2B20A708978EC
:10B7C000DB004344914200D19DE019783200012909
:10B7D000E3D15C68227C9046414632000029DCD1EE
:10B7E0009A686260D968A1601869E0605B69A361CA
:10B7F000069B002BAFD04346002263606346D31AFA
:10B800001B021B0A4B45ACD963469A1A1202120A54
:10B810008A4264D28B1A6A46127823606760A760F6
:10B820002274E761002EA6D122000123A3460193D2
:10B830001600B3E75668002B30D09E421ED0009A07
:10B840001F00944602E0964206D01700FA69002ACB
:10B85000F9D16246009212E765460095BA420FD0D0
:10B860001568D269FA61002A16D013689C466544AF
:10B87000156045784B4602E700210FE71A001F00CC
:10B88000DE69002E0CD0012500951568D269B146FD
:10B890003300FA61002AE8D14578F0E60023EEE6AD
:10B8A0000125234B9D6000950695002500230795F3
:10B8B0000135994608950995D2E700239A460193E8
:10B8C000B5E66A4624215218174B12781A7007E71A
:10B8D000C91A1160E26123603200C4615DE76B4602
:10B8E0001B7827606760A7602374E761002E9BD0F8
:10B8F00000233168CB1A336022000123E661A3469E
:10B90000019316004AE7524615705EE74C19002075
:10B9100060190020611900206419002050190020CE
:10B92000581900205C19002062190020FEFF7F00DA
:10B9300000100140019B002B00D09DE0029B99422A
:10B9400036D1059B002B33D10023534A13700BB023
:10B950003CBC90469946A246AB46F0BD4F4B0024F6
:10B9600018680025029B00210026574615E01A683A
:10B97000BA4200D984E0D868BF1A89181E60DC6911
:10B98000002807D0DD611D00059A98605218120248
:10B99000120A5A6023002000019C002BE7D1002CE2
:10B9A00001D03E4B18600023029301330593AFE6AC
:10B9B000002900D15DE00B6839489846394B3A4D73
:10B9C000C4583A4B2E781B68E11A0902090A033160
:10B9D000002E2DD042468A4200D20A00A820D2185A
:10B9E00012022F49130AC0002E4D0B504A591B1B3F
:10B9F000121B1202120A1B0203321B0A9A42A3D91B
:10BA00004B590B502F200138C046C046C046C04697
:10BA1000C046C046C046C046C046C046C046C046F6
:10BA2000F1D180218023224A89025B00D1508BE72B
:10BA30008026D1277602BF00C651403FC651C022A2
:10BA400080271B4EBF025200B750376001260660A8
:10BA50002F200138C046C046C046C046C046C0463A
:10BA6000C046C046C046C046C046C046F1D12E7052
:10BA7000B0E7FFF70FFD67E75A46084B1A605DE72E
:10BA8000BA46002C01D0054908605146521A1A6086
:10BA90000293012305933BE6621900205019002010
:10BAA00000100140040500006C1900204C19002012
:10BAB00000E100E0F8B54F464646C0B40326350025
:10BAC00080460F001400994615400720002D03D032
:10BAD0000CBC90469946F8BD002A44D0FFF7DAFC2A
:10BAE0004A46224B80201A602200214B18321E70D9
:10BAF000204B62601C607B00DB19DB00D218E26027
:10BB0000D318C022636125706570A77025726572B5
:10BB1000A77225746574A774C524FF21164B4003D2
:10BB20001D60164B52001D70154BA4001D70154B67
:10BB300098501A598A433F390A431A51A122186072
:10BB400040461149D2008850C42080001C580F4A3A
:10BB50002240C024240222431A500D4B0020CA5810
:10BB60000C4B1A60B4E7034B1A60B1E7541900207C
:10BB7000581900205C19002050190020601900207D
:10BB80006119002000E100E000100140FF00FFFF0C
:10BB9000040500004C19002010B50B4B1B68002B4E
:10BBA0000BD0002A07D0002805D0036808201C7C91
:10BBB000002C04D010BD0720FCE70820FAE75974D8
:10BBC0005A610020F6E7C0465C190020F0B54746F0
:10BBD00080B43A4B1C68002C08D0002806D00723FC
:10BBE000042905D8180004BC9046F0BD0823F9E7E5
:10BBF0004369002BFAD0437C012B49D000239C469B
:10BC0000EFF30583DB05DB0D1025002B26D164192E
:10BC100063785F1CFEB2A778B7423DD02778B74261
:10BC200038D05D00ED186368ED0098464544042364
:10BC3000002DD7D0033B2B706860214B2148C3589F
:10BC4000E960AB60634680212B6180236A611E4AF4
:10BC50005B0049036670D1500023C3E7103BDFB29D
:10BC60007DB2002D1ADB0326AD08174FC035AD009D
:10BC7000ED593340DF002B00FB409B093340DBB222
:10BC80000025012BC3D00835032BC0D00835BEE7F3
:10BC90008C46B5E70423A5E70026BFE70F230B4D2D
:10BCA0003B40A8460325083B9B089B0043445B6838
:10BCB0002F40FF00FB409B092B40E0E75C19002070
:10BCC000040500000010014000E100E018ED00E074
:10BCD00010B5304A03001168082000292BD0002B32
:10BCE00029D05A69002A26D000221A74EFF305825F
:10BCF000D205D20D0830002A1ED109184A7888785A
:10BD0000541CE4B2A04232D00878A0422DD050009A
:10BD100082184868D200844662440420002A0AD06F
:10BD20000238107053604C708023802100201A4A22
:10BD300049035B00D15010BD103AD4B260B2002864
:10BD400017DB8008144CC0308000005903242240C7
:10BD5000D200D04082092240D2B20020012ACCD0A9
:10BD60000830032AC9D00830C7E70420E3E70024DD
:10BD7000CAE70F220948224084460320083A920865
:10BD80009200624452680440E400E240920902409A
:10BD9000E2E7C0465C19002000E100E018ED00E099
:10BDA00082B00190019B002B14D0019B0A48013BFB
:10BDB00001930138C046C046C046C046C046C04692
:10BDC000C046C046C046C046C046C046F1D1019BF1
:10BDD000002BEAD102B07047E7030000F0B500285D
:10BDE0001EDBFF261A4B37009C4603238208C02522
:10BDF000C0B20340DB0089019F403140994092006E
:10BE00006244AD005459BC43214351511F23C0210A
:10BE100018401E3B83400E4A490053501360F0BD4A
:10BE2000FF250C4A2E00944603220F23C0B2024085
:10BE3000D20089019640294091400340083B9B086D
:10BE40009B006344DC69B4432143D961DEE7C0460B
:10BE500000E100E000ED00E070B54425164C08203C
:10BE6000635D002B00D070BD4022FF21013BA35435
:10BE70000132A1540132A354236201326362A362EE
:10BE8000E36223636363A363E363FC390238A3546F
:10BE900023606360A360E36023616361A361E36186
:10BEA000FFF79CFF8021C123044A9B000906D15063
:10BEB000012300206355D6E7701900200060004080
:10BEC0004423034AD05C431E9841C0B27047C04629
:10BED00070190020F0B5474680B4534C082523184C
:10BEE00020331E787F2E03D8280004BC9046F0BD76
:10BEF000CD78AC46002D36D02568013500D188E0DC
:10BF0000042300269846731C9D006759013733D0DF
:10BF1000B31C984525D99D00675901372CD0F31CD7
:10BF200098451ED99D006759013725D0331D984586
:10BF300017D99D00675901371ED0731D984510D938
:10BF40009D006759013717D0B31D984509D99D0049
:10BF50006759013710D00736B04502D9E36901337C
:10BF600008D00425C0E72569013557D008230426E9
:10BF70009846C8E707231C25625162462718DEB29F
:10BF800020373E70002A02D1E3183C3318708B78BA
:10BF9000002B15D10300A0254A78C133FF3392004E
:10BFA0009B00ED055A51CB78002B15D176B2A41920
:10BFB0003C340B7822789B0113432370002593E7D0
:10BFC000A022D2059446E025022783006344ED00B9
:10BFD0005A59BA435A51E6E7144A0B789446A221BB
:10BFE00076B2B6006644C9007458114A0002224075
:10BFF0007250F822520110400500C02218040300BC
:10C0000028009202745813401843204370500025B2
:10C010006AE7002522601D700026B8E7042522612A
:10C020001D702E002B00AFE770190020006000404B
:10C03000FFE0FCFFF0B5264D2C182034227853B2D7
:10C04000032B18DDEB183C331B789B09032B32D0F4
:10C05000012B39D0C0218902A023DB059C46E023B7
:10C0600080006044DB00C4581A4A2240C250C258C3
:10C070000A43C250F0BD032AFCD81748A2278446C1
:10C0800001269A006244FF00D0593043D0511A0073
:10C09000604600274032920092B217500029E9D042
:10C0A0000022A25692005259002AE3D09E40C1239A
:10C0B0009B00C650DEE7A223A022DB00D205D258A7
:10C0C000012383401A42C5D180218902C4E7C046BA
:10C0D00070190020FFFFFCFF00600040A222A02199
:10C0E0000300D200C9058858D84001231840704782
:10C0F000F0B54D465F4656464446F0B4B24A83B06A
:10C1000013680025012B00D16AE1B04B1A68012A9F
:10C1100000D173E1AE4B1A68012A00D17EE1AD4B2C
:10C120001A68012A00D189E1AB4B00271A68012A5D
:10C1300000D194E12B070BD0EB0700D5B5E1AB079D
:10C1400000D5C1E16B0700D5CCE12B0700D5D8E1C4
:10C15000002D06DB03B03CBC90469946A246AB4698
:10C16000F0BD00230125994640339B46B8469B4CC1
:10C170006D425B46E15C4BB201332BD0C9B2C023A8
:10C18000080098432B000122C34000271A4222D006
:10C19000231820331B7889095BB29B00E358002BDE
:10C1A00000D1EAE082401700032900D1EAE0A0268E
:10C1B000F605B446E02682006244F6009659B603BE
:10C1C000B60FB4464646374200D0AFE06646032E6F
:10C1D00000D14EE100274123E15C4BB201332ED068
:10C1E000C9B2C023080098432B000122C3401A4261
:10C1F00025D08B090093231820331B785BB29B005A
:10C20000E358002B00D1CBE082409446009A032AE9
:10C2100000D1CBE0A026F605B246E02682005244CB
:10C22000F60096591100B603B60FB246424666466E
:10C23000164200D087E05246032A00D16DE1422326
:10C24000E15C4BB201332DD0C9B2C0230800984342
:10C250002B000122C3401A4224D08B0900932318DB
:10C2600020331B785BB29B00E358002B00D18DE09C
:10C2700082409446009A032A00D18CE0A026F6055D
:10C28000B246E02682005244F60096591100B603E9
:10C29000B60FB24642466646164262D15246032A5D
:10C2A00000D178E14323E15C4BB2013326D0C9B21F
:10C2B000C02308009843C540BF3B2B421ED0221824
:10C2C00020321278890952B29200A258002A72D004
:10C2D00083401D00032972D0A026F605B446E0264F
:10C2E00083006344F6009E59B603B60FB446464633
:10C2F000354211D16546032D00D12BE1002F00D12D
:10C3000028E7A223A022DB00D205D358984500D10C
:10C3100020E74D4698462CE76546022DEED10329CD
:10C3200000D161E1002AE9D09047E7E76646022E96
:10C3300000D04FE7032900D14AE10027002B00D1AC
:10C3400049E7984747E75246022A00D077E7009A24
:10C35000032A00D140E1002B00D170E700999847F3
:10C360006DE75246022A9DD1009A032A00D137E197
:10C37000002B97D00099984794E7032900D02AE72B
:10C38000824017004A463A43914610E70099032934
:10C3900088D1824094464A466646324391466DE7CC
:10C3A0000099032900D04AE7824094464A466646EF
:10C3B000324391462EE70329A0D183401D004B460E
:10C3C0002B43994688E7C046006100400461004065
:10C3D000086100400C6100407C6100407019002041
:10C3E000C1218348890041580B4200D18DE6814B21
:10C3F00015601A680135012A00D08BE6C1227C49FC
:10C400009200895802220A4200D183E60021196075
:10C41000794B15431A68012A00D080E6C12274497D
:10C420009200895804220A4200D178E6002119605E
:10C43000724B15431A68012A00D075E6C1226C4977
:10C440009200895808220A4200D16DE60021196045
:10C450006B4B15431A680027012A00D06AE61F605B
:10C4600080231B061D43A022A223D205DB00D75840
:10C4700060E6032900D060E78026B6020096E02639
:10C48000F6009659B2465F4EB446564667463E4061
:10C49000E027FF00D651D659B4466746009E3E437A
:10C4A000E027FF00D651012748E7A223504ADB00CE
:10C4B000D058D158544C8903C0042368890FC00E4A
:10C4C0009847AB0700D43DE6504B494A4E4CD058F4
:10C4D000D158C00489036368890FC00E98476B0761
:10C4E00000D432E6A323424ADB00D058D158464C50
:10C4F0008903C004A368890FC00E98472B0700D496
:10C5000026E63B4A424B404CD058D158C0048903E0
:10C51000890FC00EE36898471AE6009A032A00D0F4
:10C5200019E7802292020192E022D2009246354E13
:10C530008A58013732409446524666468E508A5891
:10C54000FFB294466646019A324394465246664686
:10C550008E5000E7032900D0E4E68025AD02009567
:10C56000E025ED005E590137B246264EFFB2B446D3
:10C57000564665462E403500E026F6009D519D59F1
:10C58000009E2E433500E026F6009D51002A00D182
:10C59000B7E69047B2E6009A032A00D0E8E6802288
:10C5A00092020192E022D2009246164E8A5801373A
:10C5B00032409446524666468E508A58FFB29446A0
:10C5C0006646019A32439446524666468E50CFE6FE
:10C5D000C026B602009652E7C02292020192A3E75B
:10C5E000C02292020192DDE7C025AD020095B7E7B7
:10C5F0000060004004610040086100400C610040A0
:10C600007C610040FFFFFCFF701900201405000052
:10C610001C050000C12210B5604B92009A5884B0EE
:10C6200092054DD55E4A1168002949D0002111605C
:10C630008121C2228900920099505A4B9A7E002A89
:10C6400002D10121584A1160022269460A709021E4
:10C650005248C9004258425069460392DA7D684602
:10C660000A72DA68196801920022DA751A765B6834
:10C6700098474E4A1368002B10D04A4B988A997DF0
:10C6800081424FD9002111609A8A9968895C9A8AFF
:10C69000013292B29A82464B404AD150454B1A68B9
:10C6A000002A0BD000221A603E4B9A7E002A02D04C
:10C6B00001213A4A1160DA7D002A42D104B010BD4E
:10C6C000C123364A9B00D3585B07D2D53A490B6841
:10C6D000002BCED0334BD87D00283FD10860A3215A
:10C6E000C90052585A7ED97D9142C2D11A7E002A81
:10C6F00041D19A7E002A02D101212B4A116081206A
:10C70000C2222649800092008850002268460121FA
:10C71000DA755A7E01700272DA68196801925B68F4
:10C720009847A6E7002010600029B7D06A4610702D
:10C7300011729A689875196801925B686846984703
:10C74000ACE7002268460121DA755A7E0170027258
:10C75000DA68196801925B689847AFE700200860C3
:10C76000A320C000597E1258D86842545A7E013224
:10C77000D2B25A76B6E7DA751A69D968DA60002259
:10C780006C46587E1A765A760132207201912270D8
:10C79000196868465B6898476BE7C0460020004010
:10C7A00024210040B8190020042000401C21004032
:10C7B0001C050000442100400821004010B5264B14
:10C7C0001A68002A05D0C122244992008A58D2034F
:10C7D00027D4234B1A68002A05D0C1221F49920092
:10C7E0008A58920326D41F4B1A68002A05D0C1220A
:10C7F0001A4992008A58520325D41B4B1A68002A02
:10C8000005D0C122154992008A58120300D410BDE8
:10C810000022A6201A60154B400059681B689847F3
:10C82000F5E70022A0201A60104B400059681B68F1
:10C830009847CEE70022A2201A600C4B40005968AE
:10C840001B689847CFE70022A4201A60074B4000DE
:10C8500059681B689847D0E740810040008000403D
:10C8600044810040488100404C810040D4190020A0
:10C8700010B5264B1A68002A05D0C122244992001F
:10C880008A58D20327D4234B1A68002A05D0C12224
:10C890001F4992008A58920326D41F4B1A68002A17
:10C8A00005D0C1221A4992008A58520325D41B4B45
:10C8B0001A68002A05D0C122154992008A5812032D
:10C8C00000D410BD0022A6201A60154B4000196943
:10C8D000DB689847F5E70022A0201A60104B400063
:10C8E0001969DB689847CEE70022A2201A600C4B3A
:10C8F00040001969DB689847CFE70022A4201A603E
:10C90000074B40001969DB689847D0E74091004029
:10C910000090004044910040489100404C910040FC
:10C92000D4190020F0B54D4644465F465646F0B453
:10C9300009AC25780AAC2478A4460C78002C17D1D1
:10C940001678B046922676008759B346002F20D03D
:10C950003300243BFF3B845143610B70A8450FD04B
:10C96000012420003CBC90469946A246AB46F0BD4F
:10C970009222002352008350083A8350143A835085
:10C9800082235B00C258002AEAD000220024C25051
:10C99000E7E78E267600B1468659002E0BD04E462C
:10C9A00087515E468659002E22D05B46C750012330
:10C9B00043610B70D2E7842464000759002FCDD067
:10C9C00006515C460459002C22D111788D42C5D9FC
:10C9D000A324E40004595C5413780133DBB21370D0
:10C9E0006A1E93421DD09D42B8D001230362B5E771
:10C9F00011788D4205D86346002B0FD00123C36107
:10CA0000AFE7595C094BC150137801331370A5E7A8
:10CA100001235A46865043610B709FE7012343610F
:10CA20009CE7802302229B00C250DEE71C05000029
:10CA3000F8B544465F464D465646F0B40479844600
:10CA4000A0006E4F80460019C000381822300578CB
:10CA50000820002D05D03CBC90469946A246AB4626
:10CA6000F8BD002900D1C4E040460019C0003A508A
:10CA70003A1853601000002325309360243203706D
:10CA80001370A0230A685E48C132FF32DB059200B2
:10CA9000D0504A68C132FF329200D05001200500C8
:10CAA0000A689540A122D2009D504D68A840985038
:10CAB0000868544DC130FF308000C5504868C1300F
:10CAC000FF308000C55004200138C046C046C04633
:10CAD000C046C046C046C046C046C046C046C04626
:10CAE000C046F1D1A220C000824647480026012559
:10CAF00083469146524648689A58C240154200D033
:10CB000074E02A000868824058461A500420013810
:10CB1000C046C046C046C046C046C046C046C046E5
:10CB2000C046C046C046C046F1D12A0008688240CF
:10CB300048461A5004200138C046C046C046C04688
:10CB4000C046C046C046C046C046C046C046C046B5
:10CB5000F1D10136092ECDD1486801231D00A02254
:10CB600085402948D205155004200138C046C046EA
:10CB7000C046C046C046C046C046C046C046C04685
:10CB8000C046C046F1D148688340A120C000135080
:10CB9000A0220B681A48C133FF33D2059B0098507E
:10CBA0004B68C133FF339B0098506346A1221B683A
:10CBB0000D68D20048689D50134A98508868134AFF
:10CBC000985043461B19DB00FB58002B06D06346E8
:10CBD0001868097B000B40B2FFF700F901234444B9
:10CBE000E4003F1922373B70002034E7002EB4D117
:10CBF000CEE707482101411836E7C046EC1900206E
:10CC00000C0600000D0600000C05000024050000C5
:10CC100010FA0100A022037901680520D200885093
:10CC20009A00D318034ADB00D318022222331A7069
:10CC30007047C046EC190020F0B544464D465F46AB
:10CC40005646F0B48BB0029314AB1B7807AC9946F0
:10CC50000391019280460C2200212000FEF702FB86
:10CC60004B46002B28D100239B4604934346197959
:10CC70001A6808000591C22301219B004942D15046
:10CC800084462421854B98468300994663448C460C
:10CC9000DB0043449C4461460978C9B2002910D0A6
:10CCA0009968C12311209B00D1500BB03CBC904629
:10CCB0009946A246AB46F0BD01239B461F33049321
:10CCC000D4E70127BA46674656463E70049E68463A
:10CCD0009E610C26B446007B9C44607068466646A4
:10CCE000007AA07001980890A1CCA1C61C00029DFA
:10CCF00020342570B124039EE40016511C005E46CA
:10CD00002134267082241F006400115120341151F7
:10CD1000083C11512637143C11513970F834033F47
:10CD20001151397051460198DB3CD861FF3C1162CA
:10CD30009160195D8D4216D8049B002B1AD0534682
:10CD4000D36105994B468C4641466344DB00C95884
:10CD50004344002911D05249002099609968C123A9
:10CD60009B00D150A1E7475C4E495750195D0131F6
:10CD70001955E6E753465361E3E79C462331614486
:10CD80008B460393019B92219A46029B00249C466A
:10CD90005F46059849003B78002B38D12626B346DC
:10CDA000039D5D44AB462E785558002D36D18E2319
:10CDB0005B00D358002B36D08E235B00D5505358E0
:10CDC000002B51D00123555053613B70B445E2D143
:10CDD00082235B00D358002BDDD0822300215B002F
:10CDE000D1500300059042464B44DB00D1180A00A5
:10CDF000233212780320541EA24152421040424670
:10CE0000D358002B00D050E724310B704DE78E2310
:10CE10005B005450D450143BD450D9E753500123F5
:10CE200053613B70D2E784256D005559002DCDD05C
:10CE300084256D0053515558002DEFD1B445C5D907
:10CE4000A3235546DB00D358AB555B465D461B78A4
:10CE50000133DBB22B706546013DAB4219D09C45D6
:10CE6000B4D001231362B1E7B44507D953469D5DA1
:10CE70000C4BD5505D46731C2B70A7E7049B002B11
:10CE800002D101235361A1E701230590D36103007F
:10CE9000A9E7802302259B00D550E2E7EC1900208A
:10CEA000860200001C050000F0B544465F46564669
:10CEB0004D46F0B4040089B0039305AB029118000D
:10CEC000002191460C229A46FEF7CCF923790122E3
:10CED0009C46C223246852429B00E2506346494A62
:10CEE0009B00934698466344DB005B441900243161
:10CEF0000A78D2B2002A0BD09A68C12311209B0075
:10CF0000E25009B03CBC90469946A246AB46F0BD03
:10CF1000012008705146012008706846007A9A6125
:10CF20004870039888704946069119008346504618
:10CF30000C31E0C8E0C1584608724946D961B121B8
:10CF40000298C9006050190021310A7082214900FD
:10CF50006250203162500839625014396250190011
:10CF600023331A705B4626310A70012B16D08023BA
:10CF700001229B00E2500123236223604346214AA1
:10CF80006344DB00D258002A0DD01E4A0020D61878
:10CF90001D4BB360B2687E33E250B2E780230222B9
:10CFA0009B00E250E7E7174A203392465344DA1CCD
:10CFB00006339A46039B250017005446E3469A46DB
:10CFC0000023019353462200009339004B4628006A
:10CFD000FFF7A8FC0028F3D15D460A4B4544ED005D
:10CFE0005A191300233318780649431E98414342C7
:10CFF000032049591840002900D082E71300243348
:10D0000019707EE7EC19002086020000F0B5574643
:10D010004E4645462321E0B4984B86B0585C002824
:10D0200017D1202292249F5C063294469E5C944A3B
:10D0300064001559A246002D36D0105101205061D0
:10D040005854B7420ED006B01CBC90469946A24632
:10D05000F0BD922000218A4A40001150083811503A
:10D060001438115082228649520088580028EAD08C
:10D070000020885023215A5C002A29D1187B841E65
:10D08000012C5AD9190003AA0C3170C970C20022B0
:10D0900002A802702422002199549A695207D2D41E
:10D0A00059681B689847CEE7D86981468E204000B2
:10D0B0001458002C20D021241C5D155050461058C7
:10D0C00000286FD050461550012050615854B8E7E1
:10D0D000190003AA0C3170C970C26A49684C02A8D1
:10D0E000625862500221114203D15207D2D5017019
:10D0F000D0E701220270CDE7842040001558002DB2
:10D100009FD014505046105800285AD1B74298D991
:10D11000A3214846C9005158815561466046595C73
:10D120000131C9B21954781E814250D08F4200D1CA
:10D1300087E70121524A116283E7DC691D69AC422D
:10D14000A0D12026DC7B9F699C553E403700B0462D
:10D150007E1EB74121265D69FFB2DD619F55032820
:10D160003AD0822646487600825120368251083EC7
:10D170008251143E8251E23E9A555A54012C50D0AD
:10D18000802201219200815001213D4A11621160EB
:10D19000196800294AD03C4999609968C1239B00CD
:10D1A000D15050E7B74204D8002C0DD10121516174
:10D1B00047E74946885D354950506146721C5A54CC
:10D1C0003FE72000544638E70121D16152E7802132
:10D1D000022089005050ACE72948E33682512036BE
:10D1E0008251083E8251143E8251F8368251DB3E14
:10D1F000FF3E9A555A5401320262B4468260002CB6
:10D2000024D02E782149465061465A541A68002A83
:10D2100023D01D4A9A609968C123194A9B00D150B6
:10D2200011E78022022192008150ADE71F002333D5
:10D230001E0026370023009401933A002B00310092
:10D240000F48FFF76FFB0028F4D1FCE641460029A8
:10D2500001D0C261DAE74261D8E7263290469844AD
:10D2600023331E00019700942B00424631000448EE
:10D27000FFF758FB0028F5D1E5E6C046EC19002081
:10D2800000300040C4040000860200001C050000BD
:10D29000A02210B5064BD205D15880231B031C00D9
:10D2A000A1208C430B400349C0001450535010BDC3
:10D2B000040500000C050000F8B54F464646040082
:10D2C000C0B41C2805D01E2835D00CBC9046994609
:10D2D000F8BD0026012911D000291FD00229F4D160
:10D2E00073009E191D4B9E197578002DEDD01C4BB7
:10D2F0001B68002BE9D028009847E6E7174B77001A
:10D3000098464246BB19D55C43445B78002B14D148
:10D31000BF194744BA78134B9A55E6E71248FEF70F
:10D32000D7FC0E4A73009B19D3180E4A9B78955D63
:10D330009D42CAD1D9E70126CCE70C4B0A48994651
:10D340000B4B4A461B689900C9184900FEF73EFC82
:10D350000028DDD14B461C70DAE7C046901A002049
:10D36000441A0020381A0020481A00208C1A002085
:10D37000401A0020F8B5C64B1B68DB0700D4F8BD87
:10D38000C44A1478172CFAD8C349A300CB589F4637
:10D39000A022C24BD205D15880239B021C00A120A1
:10D3A0008C430B40BE49C00014505350BD4B00226B
:10D3B0001B68BD489900C918FEF708FCDFE7A023E9
:10D3C000E021B74ADB05090399500021043A99503E
:10D3D000D5E7A022B14BD205D15880239B021C0077
:10D3E000A1208C430B40AE49C00014505350AD4BAC
:10D3F00000221968AC48FEF7E9FBC0E7AB4BA1205F
:10D400001968A0231B038B43A0210026E025C90532
:10D41000C000A34C0B50A14B0E51CB582D036B40B9
:10D420008025ED022B4000D129E10D5003230E5140
:10D43000082113709B4B00221B689B485943FEF741
:10D44000C5FB9CE7994BA1201968A0231B038B43C4
:10D45000A0210026E025C905C000914C0B508F4B40
:10D460000E51CB582D036B408025ED022B4000D18F
:10D4700000E10D5004230E512821DAE7A023A12258
:10D48000A021DB05D20009038024995000218448A3
:10D49000E40219501C50995071E7854D2800FEF7A1
:10D4A00017FC11231C1B00D1C9E0002800D0C6E0E6
:10D4B00080237E4E1B033360012C10D0C8306421C2
:10D4C000604301F05DFE774B00221B684343280058
:10D4D0001900FEF77BFBE02332681B031340A022F8
:10D4E0006F49D2055350A1230021DB00D15046E7FC
:10D4F0006E4BA1211A68E0231B039343A022C900AD
:10D50000D20553500021664BD15038E7674BA1201C
:10D510001968A0231B038B43A0210027E026C9051F
:10D52000C0005F4D0B505D4B4F51CB5836037340DD
:10D530008026F602334000D190E00E504F51282152
:10D54000022C79D0147075E7A023A1228021DB057D
:10D55000D2000903C024995000215148E402195017
:10D560001C5099500BE7A023A122C021DB05D2005B
:10D5700009038024995000214948A40219501C50E5
:10D580009950FCE6A023E021A122DB050903D2008B
:10D5900099500021424A9950F1E6A022434B1203D0
:10D5A0001B68A1219A43A023C900DB0580245A509F
:10D5B00000223B48E4021A501C505A50DFE63B4B15
:10D5C000A1201968A0231B038B43A0210026E0257E
:10D5D000C905C000324C0B50304B0E51CB582D03B7
:10D5E0006B408025ED022B4041D00D500E5105239C
:10D5F00013702C4B002219682B484900FEF7E6FAFD
:10D60000BDE62A4BA1201968A0231B038B43A02150
:10D610000026E025C905C000214C0B501F4B0E51C0
:10D62000CB582D036B408025ED022B402CD00D50A4
:10D630000E5106231370DAE609311470FAE6E0237E
:10D640001A4A1B031168A1200B40A021C000C90584
:10D650000B50002312480B50136090E64E510B50B4
:10D660000421022C00D06DE703391470E2E60D515D
:10D670000B50BCE70D510B5004210423D9E60D518A
:10D680000B5002210323D4E60D510B50D1E7C046C5
:10D690003C1A0020681A002020FA0100040500004E
:10D6A0000C050000401A0020141A0020341A002033
:10D6B0006C1A002010B503781C2B02D01E2B0ED044
:10D6C00010BD00235A00D318064AD31858780028F2
:10D6D000F6D0054B1B68002BF2D09847F0E71D3BB6
:10D6E000F0E7C046901A0020441A002070B5DB4BCA
:10D6F00004001B680020DB0700D470BD172CFCD889
:10D70000D74AA300D3589F46A022D64BD205D15862
:10D7100080239B021C00A1208C430B40D249C000F7
:10D7200014505350D14B00221B68D1489900C9189E
:10D73000FEF74CFAE1E7A022CA4BD205D15880236C
:10D740009B021C00A1208C430B40C749C000145011
:10D750005350C64B00221968C548FEF737FACCE78C
:10D76000C44D2800FEF7B4FA11231C1B00D14CE174
:10D77000002800D049E18023BF4E1B033360012CF9
:10D7800010D0C8306421604301F0FAFCB74B00228E
:10D790001B68434328001900FEF718FAE02332689B
:10D7A0001B031340A022B049D2055350A1230021EE
:10D7B000DB00D150A1E7A023E021A122DB05090372
:10D7C000D20099500021A84A002099501222AB4B58
:10D7D0001A7092E7A023A122A021DB05D200090341
:10D7E000802499500021A048E40219501C509950FF
:10D7F0001322A24B00201A707FE7A023E0219A4A4F
:10D80000DB05090399500021043A99509B4B0020F5
:10D810001C7072E7984BA1211A68E0231B03934305
:10D82000A022C900D205535000238F490020535035
:10D83000924A137061E7904BA1211A68A0231B0341
:10D840009343A0220026E025D205C9008648535004
:10D85000844B1650D3582D036B408025ED022B408E
:10D8600000D1E9E0555016502821022C00D1F2E0F9
:10D87000824B1C707D4B00221B687D485943FEF78C
:10D88000A5F93AE7A023E021774ADB05090399507F
:10D890000021043A99500C22784B00201A702CE792
:10D8A000A023A122C021DB05D200090380249950C6
:10D8B00000216D48A40219501C50995014226F4B3E
:10D8C00000201A7019E76C4BA1211A68A0231B03D2
:10D8D0009343A0220025E024D205C900624853509A
:10D8E000604B1550D358240363408024E402234046
:10D8F00000D199E054501550082103221AE05E4BE4
:10D90000A1211A68A0231B039343A0220025E02431
:10D91000D205C90054485350524B1550D3582403D4
:10D9200063408024E402234000D18DE0545028213C
:10D9300015500422514B1A709CE7A0224E4B120343
:10D940001B68A1219A43A023C900DB0580245A50FB
:10D9500000224548E4021A501C505A50474B0732E7
:10D960001A700020C9E6A023A1228021DB05D20085
:10D970000903C024995000213B48E40219501C506F
:10D98000995015223D4B00201A70B6E63A4BA12162
:10D990001A68A0231B039343A0220025E024D2058C
:10D9A000C900314853502F4B1550D35824036340BE
:10D9B0008024E40223403CD05450155005222F4BC4
:10D9C0002B481A70294B002219684900FEF7FEF80F
:10D9D00093E6294BA1211A68A0231B039343A0229D
:10D9E0000025E024D205C9001F4853501D4B155097
:10D9F000D358240363408024E402234028D05450A9
:10DA0000155006221D4B1A70A3E6E0231A4A1B0389
:10DA10001168A1240B40A021E400C9050B5100238B
:10DA2000114C0B51136068E614505350022103222D
:10DA300080E714505350C1E7155053500421022C75
:10DA400000D015E7033913E714505350042170E751
:10DA500014505350D5E709310AE7C0463C1A00205C
:10DA600080FA0100040500000C050000401A0020A7
:10DA7000141A00206C1A0020341A0020681A0020A2
:10DA8000214B10B51960214B04001860204B1A601F
:10DA900083070ED50D221F4B1F481A700132DA7012
:10DAA0004A080221FDF766FC002820D0E30703D4D2
:10DAB00010BD0020E3070DD5A023E022A121002402
:10DAC000DB051203C9005A5014495C500C315A50FE
:10DAD0000028EDD1124A00211248FEF75DF8002817
:10DAE000E6D1114A01211148FEF756F8E0E7FDF7AB
:10DAF0009BFC0028DAD10E4A00210E48FEF74CF8B4
:10DB0000E307D9D4E4E7C046401A00203C1A0020BD
:10DB1000441A0020901A0020E8FA01000C050000C9
:10DB200075D30100E4FA010091D20100F8FA010076
:10DB3000B5D60100E0FA01007723F0B5464C85B078
:10DB4000237203AA7D3313700023444E7721357866
:10DB50002000AD01343500930133EDB2FFF76CF8CE
:10DB6000002801D0FDF778FC0B2200236A441570D1
:10DB7000217A200000930133FFF75EF8002801D0DE
:10DB8000FDF76AFC3378002B5AD0012B60D0022BB2
:10DB90005AD01A20FEF704F977230F2223726A4421
:10DBA0007F33137000237721009320000133FFF7A8
:10DBB00043F8002801D0FDF74FFC0E2777236F4470
:10DBC00023723A00763B77212000FFF76DF9002899
:10DBD00001D0FDF741FC3D78217A01233A00200075
:10DBE0002D02FFF761F9002801D0FDF735FC7723FE
:10DBF0002372813338783B700023054300933A0049
:10DC00000133772120002D02FFF716F8002801D0FC
:10DC1000FDF722FC0D2777236F4423723A00763BF1
:10DC200077212000FFF740F9002801D0FDF714FC10
:10DC300008233878327828439B1AD84005B0F0BDC5
:10DC40000520FEF7ADF8A7E70E20FEF7A9F8A3E739
:10DC50000820FEF7A5F89FE7B81A00209C1A0020BC
:10DC600077230D22F0B5564C85B023726A447D337C
:10DC7000137000237721009320000133FEF7DCFFAF
:10DC8000002801D0FDF7E8FB2E2303AA1370002320
:10DC9000217A200000930133FEF7CEFF002801D047
:10DCA000FDF7DAFB0520FEF77BF877230F222372BE
:10DCB0006A447F33137000237721009320000133DF
:10DCC000FEF7BAFF002801D0FDF7C6FB0E27772329
:10DCD0006F4423723A00763B77212000FFF7E4F887
:10DCE000002801D0FDF7B8FB3D78217A01233A00E6
:10DCF00020002D02FFF7D8F8002801D0FDF7ACFB7B
:10DD00003E78FFF719FF35432E4E0400F08AB38AA0
:10DD10002D1A5D430E23F05E1023F15EED134919B9
:10DD2000C00201F0B7FA284B40199C46604403003A
:10DD300043430622B15E0827F25F1B1341435A4357
:10DD40004913121489188022120294460231728AF1
:10DD50008910614451430A27F25F35785343042701
:10DD6000F25FDB125043C0121B180220325E032008
:10DD700092009B18AB400233DA171040C3181348C7
:10DD80009B10E840E31A5843C90B002813DB4000FE
:10DD900001F0F6F90E4903120A005B435A430D4B9A
:10DDA0004343191413140C4ACB18944663441B11B3
:10DDB000C01805B0F0BD01F0E3F94000EAE7C04645
:10DDC000B81A00209C1A002060F0FFFF50C300002A
:10DDD000DE0B000043E3FFFFCF0E0000F0B52A4B3F
:10DDE0002A4C87B0236000230022237163712849E5
:10DDF00023002000FEF71CFE002801D0FDF72CFBBD
:10DE00002000FEF707FF0123224E02AA337076336B
:10DE100023725933137000237721009320000133BC
:10DE2000FEF70AFF002801D0FDF716FB772305ADAA
:10DE300023722A00763B77212000FFF735F800286F
:10DE400001D0FDF709FB2B78552B29D00026124B6A
:10DE50002E701E70114B6E701E702A0000960223E9
:10DE60001E212000FEF7E8FE6B232B702B3B607217
:10DE70006B702A0000963E3BD0212000FEF7DCFEAE
:10DE8000607207B0F0BDC04600300040B81A0020F4
:10DE9000FCFA01009C1A0020B41A0020C41A0020C9
:10DEA0000922223323726A4433331370002377210B
:10DEB000009320000133FEF7BFFE002801D0FDF7DC
:10DEC000CBFA77232A0023727721763B2000FEF7D6
:10DED000EBFF002801D0FDF7BFFA2B78217A1F0253
:10DEE0002A0001232000FEF7DFFF002801D0FDF704
:10DEF000B3FA2B780A223B43738077236A44237258
:10DF00003533137000237721009320000133FEF78F
:10DF100093FE002801D0FDF79FFA77232A00237291
:10DF20007721763B2000FEF7BFFF002801D0FDF7E8
:10DF300093FA2B78217A1F022A0001232000FEF792
:10DF4000B3FF002801D0FDF787FA2B780B223B4363
:10DF5000B38077236A442372373313700023772109
:10DF6000009320000133FEF767FE002801D0FDF783
:10DF700073FA77232A0023727721763B2000FEF77D
:10DF800093FF002801D0FDF767FA2B78217A1F0252
:10DF90002A0001232000FEF787FF002801D0FDF7AB
:10DFA0005BFA2B7803AA3B43F38077232372393340
:10DFB000137000237721009320000133FEF73CFE0D
:10DFC000002801D0FDF748FA77232A002372772131
:10DFD000763B2000FEF768FF002801D0FDF73CFAF1
:10DFE0002B78217A1F022A0001232000FEF75CFF14
:10DFF000002801D0FDF730FA2B780D223B437382C5
:10E0000077236A4423723B331370002377210093F4
:10E0100020000133FEF710FE002801D0FDF71CFAA6
:10E0200077232A0023727721763B2000FEF73CFFFE
:10E03000002801D0FDF710FA2B78217A1F022A0060
:10E0400001232000FEF730FF002801D0FDF704FA7D
:10E050002B780E223B43B38277236A4423723D33ED
:10E06000137000237721009320000133FEF7E4FDB5
:10E07000002801D0FDF7F0F977232A0023727721D9
:10E08000763B2000FEF710FF002801D0FDF7E4F9F1
:10E090002B78217A1F022A0001232000FEF704FFBB
:10E0A000002801D0FDF7D8F92B780F223B43F382EB
:10E0B00077236A4423723F33137000237721009340
:10E0C00020000133FEF7B8FD002801D0FDF7C4F9A8
:10E0D00077232A0023727721763B2000FEF7E4FEA7
:10E0E000002801D0FDF7B8F92B78217A1F022A0009
:10E0F00001232000FEF7D8FE002801D0FDF7ACF97F
:10E100002B7804AA3B433381772323724133137066
:10E1100000237721009320000133FEF78DFD0028B6
:10E1200001D0FDF799F977232A0023727721763BF6
:10E130002000FEF7B9FE002801D0FDF78DF92B78FD
:10E14000217A1F022A0001232000FEF7ADFE0028DD
:10E1500001D0FDF781F92B7811223B43738177239E
:10E160006A44237243331370002377210093200005
:10E170000133FEF761FD002801D0FDF76DF977232B
:10E180002A0023727721763B2000FEF78DFE0028BF
:10E1900001D0FDF761F92B78217A1F022A000123B3
:10E1A0002000FEF781FE002801D0FDF755F92B78FD
:10E1B00012223B43B38177236A44237245331370A1
:10E1C00000237721009320000133FEF735FD00285E
:10E1D00001D0FDF741F977232A0023727721763B9E
:10E1E0002000FEF761FE002801D0FDF735F92B78FD
:10E1F000217A1F022A0001232000FEF755FE002885
:10E2000001D0FDF729F92B7813223B43F3817723C3
:10E210006A44237247331370002377210093200050
:10E220000133FEF709FD002801D0FDF715F977232A
:10E230002A0023727721763B2000FEF735FE002866
:10E2400001D0FDF709F92B78217A1F022A0001235A
:10E250002000FEF729FE002801D0FDF7FDF82B78FD
:10E260003B433382F2E5C04677230E22F0B5424DA0
:10E2700089B02B726A447D3313700023070000932A
:10E28000772101332800FEF7D7FC002801D0FDF7E5
:10E29000E3F80D222E236A4413700023297A280004
:10E2A00000930133FEF7C8FC002801D0FDF7D4F835
:10E2B0000520FDF775FD77230F222B726A447F330B
:10E2C000137000237721009328000133FEF7B4FC7C
:10E2D000002801D0FDF7C0F8772304AE2B7232007E
:10E2E000763B77212800FEF7DFFD002801D0FDF7FF
:10E2F000B3F83378297A1C02320001232800FEF794
:10E30000D3FD002801D0FDF7A7F81C4A33781C4D37
:10E310002343D48A1B1B948A5C430E23D05E1023B4
:10E32000D15EE4130919C00200F0B4FF0419200003
:10E330000830001101F0EAFA124901F097F8124989
:10E3400001F0AEF901F0C0FA2860FFF789FCC8239C
:10E35000DB0143431A000D4B2968019364230093AA
:10E36000FA2330009B0000F013F83100380000F071
:10E370004DF809B0F0BDC046B81A00209C1A002024
:10E38000981A0020000020410000C842D018002048
:10E39000F8B55F46444656464D46F0B41E000AABFB
:10E3A0001B880400984600230D1E93460B9F0370A4
:10E3B00025DB9A466421280000F06CFF64210302EB
:10E3C0002800994601F04CF8534619434B4619432F
:10E3D0005B461D0A0C4B760A9C466544A580667018
:10E3E00061803B88E380BB882381BB6863814346AF
:10E3F000A3813CBC90469946A246AB46F8BD80231B
:10E400001B024D429A46D5E7B03C000070B594B06F
:10E4100001AC06000D00082200212000FCF722FFBD
:10E42000042323706B7864219B089B006370032393
:10E43000EB56A370AD88280000F028FF6D1AADB22E
:10E440002B0A237164236571042203AD002130007F
:10E45000A371FCF707FF41221A49280001F0BCFA1A
:10E460003F202278130462781202D218A3789A18F7
:10E47000930CEB5C3370130B0340EB5C73709309EC
:10E480000340EB5C0240B370AB5CE278F37023793D
:10E4900011041B025A1863799B189A0CAA5C3271FA
:10E4A0001A0B0240AA5C72719A090340EB5C0240AD
:10E4B000F371A379AA5C9B08EB5CB271337214B060
:10E4C00070BDC0460CFB010073DF704748DF70472A
:10E4D000A0238021F0B55F4656464D464446854A06
:10E4E000DB050903F0B499500021043A995093B028
:10E4F0000023814A05310020FDF7DCFA002800D016
:10E50000F5E000227D490120FFF7BAFA002800D08B
:10E51000EAE001AF04227A49380001F05DFA0023F5
:10E5200048227849380000F07DFD002800D0D8E06E
:10E5300004AE32000021002000F0CCFD002800D005
:10E54000CCE0714800F0DEFD002800D0C3E03000D0
:10E5500000F0E2FD002800D0BAE0694B0422191D4A
:10E56000684601F039FA694B38223B806B33FF3340
:10E57000BB80674B002130009B460393FCF772FE83
:10E58000002333700633F370053B33826B46012260
:10E5900073612C2300213000B762F25400F01EFC9E
:10E5A000002800D091E05B4B18229846002118000B
:10E5B000FCF758FE42460323137000235360137286
:10E5C0008022414692010A824B82FFF707FC58469F
:10E5D0000B30FFF749FE4046FFF776FF002871D168
:10E5E0000220FFF783F8002869D1A0238021A1220F
:10E5F000DB050903D20099503E4A002100249946C8
:10E6000092469950FFF762FF002801D0FCF724FFE3
:10E610000521200000F024FF0D1E01D00134F1E798
:10E6200080214B46524689029950A1234A465846BA
:10E63000DB00D5500B30FFF717FE314B0422191DBC
:10E64000684601F0C9F9314B38223B806B33FF3308
:10E65000BB805B46002130000393FCF703FE0623DA
:10E66000F370053B33826B46012273612C2300213A
:10E6700030003570B762F25400F0B0FB002801D0D2
:10E68000FCF7EAFE002118224046FCF7EBFD42466B
:10E6900003231370802300259B010A2013825560F9
:10E6A00015725582FDF77CFBA12380214A46DB00D1
:10E6B0008902D1504B46524601349D50A2E7FCF7E7
:10E6C000CBFE92E7FCF7C8FE8AE7FCF7C5FE6AE7D7
:10E6D000FCF7C2FE41E7FCF7BFFE38E7FCF7BCFEE3
:10E6E0002FE7FCF7B9FE23E7FCF7B6FE11E7FCF7CE
:10E6F000B3FE06E70C050000C81A0020CD0C000090
:10E7000050FB0100A81C002070180020AAFEFFFF8B
:10E71000DC180020901C002071DF704772DF70470A
:10E7200079DF70477DDF704765DF7047F0B55F4682
:10E7300056464D464446F0B485B09A460EAB80CB63
:10E7400006001B8800919B463B8801930388002BA1
:10E7500064D000230E97994602ABDD1C0E9B00246B
:10E760001700984603E033880134A3422CDD736818
:10E77000A1009C460422614403A801F02DF9002267
:10E78000290003A8FFF7D0FF002829D12B78BB422E
:10E79000E9D14B46002B2AD043461A88D3195B4552
:10E7A0003EDC5244290003A8FFF7BEFF002817D122
:10E7B00043462A781B880134D3184246138001232C
:10E7C00099463388A342D2DC4B464746002B25D0DE
:10E7D0003B88019A013B9B1A9BB20C20FF2B1AD954
:10E7E00005B03CBC90469946A246AB46F0BD4346B8
:10E7F0001B88DA1902325A4512DC42460133694657
:10E800009BB2138052460978D15443461A8801328C
:10E8100092B21A80C5E71100524653540020DFE738
:10E820000C20DDE7F0B55F4656464D4644460023D2
:10E83000F0B417881380436B87B006000D001400F6
:10E84000002B00D19BE1022F00D890E11A7802231F
:10E850000B701121238801339BB22380E954238854
:10E8600001339BB22380EA54238801339BB2238077
:10E87000326B002A00D170E019001231B94200D980
:10E8800075E11121E9542388013901339BB22380BA
:10E89000E954238801339BB22380D17BE954238838
:10E8A00001339BB22380917BE954238801339BB2CF
:10E8B0002380517BE954238801339BB22380117B51
:10E8C000E954238801339BB22380D17AE954238809
:10E8D00001339BB22380917AE954238801339BB2A0
:10E8E0002380517AE954238801339BB22380117A23
:10E8F000E954238801339BB22380D179E9542388DA
:10E9000001339BB223809179E954238801339BB270
:10E9100023805179E954238801339BB223801179F4
:10E92000E954238801339BB22380D178E9542388AA
:10E9300001339BB223809178E954238801339BB241
:10E9400023805178E954238801339BB223801278C5
:10E95000EA54238801339BB223802E22B25C002A22
:10E9600000D00EE12D22B25C002A00D02BE1B2785B
:10E97000002A00D054E1F278002A14D0D91CB94200
:10E9800000D9F4E00221E9542388013901339BB214
:10E990002380E954238801339BB22380EA542388DF
:10E9A00001339BB223807268002A14D0D91CB9426B
:10E9B00000D9DCE002211278E954238808310133C0
:10E9C0009BB22380E954238801339BB22380EA540D
:10E9D0002388013323803389002B00D09CE1338AC4
:10E9E000002B00D0B2E1338B002B00D0C8E1336A9A
:10E9F000002B4BD022880C20911D9346B94200D9A0
:10EA0000B6E0198805388A46052900D8B0E0BC4927
:10EA10006A468C46D4446146D181D1898C46B94935
:10EA200088468C4500D8A3E059888C46052900D833
:10EA30009EE0B3496144D18189B2414500D897E055
:10EA4000B1498A4504D08C4502D0E24500D98FE017
:10EA500005215A46A95422880D31013292B22280F2
:10EA6000A9542288013292B222801988AA18117002
:10EA7000090A51702288023292B222805988AB185A
:10EA80001970090A5970238802332380736A9846E3
:10EA9000002B30D09A882188131D5B180C20BB42B4
:10EAA00066D8931CFE2B63D803326A54FF22238856
:10EAB00001339BB22380EA544246238801339BB240
:10EAC00023801288EB181A70120A5A704246238863
:10EAD00002339BB223809288002A0CD04146896879
:10EAE0000538002944D0E81800F076FF4346228814
:10EAF0009B88D31823802C23F35C002B00D0B0E03C
:10EB000033780020002B33D032880720012A2FD001
:10EB10002288901CB8422AD8012B04D17378023382
:10EB20009B189F4223D3023FBA1A04AF93B228180E
:10EB3000390098463B80FFF7F5FD002818D133785F
:10EB4000022B00D142E1012B00D1DFE04346082136
:10EB5000FE2B0CD822885E1CAE542288013292B261
:10EB60002280A954228801329B18238000E00C20C7
:10EB700007B03CBC90469946A246AB46F0BD002388
:10EB800076E6D91C0C20B942F2D80221E954238838
:10EB9000103001339BB22380E854238801339BB2A9
:10EBA0002380022A00D10CE100D805E1032A00D11C
:10EBB0000AE1042A00D0FDE00322EA54238801334D
:10EBC0009BB22380CEE609330C20BB42D0D804A8E8
:10EBD000FFF7A2FD0028CBD1082223880921EA549F
:10EBE0002388133201339BB22380EA5402AB9C4644
:10EBF0002088153A013080B220806144281800F046
:10EC0000EBFE238802AA0633127A9BB22380002AE5
:10EC100000D00122EA54238801339BB22380A6E668
:10EC200004330C20BB42A3D804A8FFF779FD0028C9
:10EC30009ED103222388EA542388163201339BB2E3
:10EC40002380EA54238802AA01339BB212892380CD
:10EC5000EB181A70120A5A70238802339BB2238071
:10EC600089E6B36A9846002B00D1A3E09B88023363
:10EC7000FE2B00D97BE700229146163292461632CF
:10EC8000208893460CE04B46B26A5B0090464B44AA
:10EC90009B00984443469B880233FE2B00D966E7CD
:10ECA000524601332B54238801339BB22380EA540C
:10ECB0004246238801339BB223801288EB181A70D6
:10ECC000120A5A7043462088023080B220809A8807
:10ECD000002A0BD0996800296CD0281800F07CFE1F
:10ECE000434620889B88C01880B220804B46013361
:10ECF000DBB299465B46F35C4B45C4D800E7C0469F
:10ED00007FF3FFFF7DF30000FFFF0000737898455D
:10ED100000D31CE743461AE708239846B0440197FE
:10ED200000942B00022202214046FFF7FFFC00283E
:10ED300000D01DE7019700942B00102206214046C9
:10ED4000FFF7F4FC002800D012E748E610239846AD
:10ED5000B044019700942B00022203214046FFF7A4
:10ED6000E5FC002800D003E7019700942B00102257
:10ED700007214046FFF7DAFC002800D0F8E632E62B
:10ED800018239846B044019700942B0002221421C6
:10ED90004046FFF7CBFC002800D0E9E6019700943D
:10EDA0002B00102215214046FFF7C0FC002800D0A0
:10EDB000DEE61CE60720DBE6012AFBD10022EA544E
:10EDC000FCE60122EA54F9E6E954F7E63B8809211A
:10EDD000984500D3BCE64346B9E6C04630B593B08B
:10EDE0001F236A460C009380D380002822D0C3786A
:10EDF0005B071CD501AA02A9FFF714FD02AD00288C
:10EE000016D1002C19D0E378002B10D16B460AA93B
:10EE10009A1D2000FFF706FD002809D16B469B795B
:10EE20000AAA694628000979FFF778FC00E0072064
:10EE300013B030BD90800025E3E76B460022DC80F4
:10EE40000023EEE72E4B1B78012B00D070472D4B93
:10EE50001B681B07FAD1F0222B4B1B68134027D1EC
:10EE60002A4B1B6813422BD0264B1B681B07EDD186
:10EE7000F022254B1B681340402B2DD0224B1A68E3
:10EE8000F0231340A02B01D0D02BDFD11F4B1A68E9
:10EE9000F0231A42DAD11E4A1368012B04D01D4B0D
:10EEA00013601368012BFCD1C0221B4B1A60CDE705
:10EEB000102B01D0302BDBD1144B1B681342D7D160
:10EEC000164A174B1A608022164B12021A600C4B1E
:10EED0001B78012BC8D0B9E70C4B1B681342CDD16E
:10EEE000C12380220121DB00D205D150044B1B78C5
:10EEF000012BABD1034B1B681B07BFD0A6E7C04655
:10EF0000E00F00F0E40F00F0E80F00F0EC0F00F06D
:10EF100000EC06407593000014EC0640DFFF07C0CC
:10EF200004050040186C004052DF704710DF704746
:10EF300060DF704761DF704710B5FCF79DFA10BDC8
:10EF4000F0B557464E464546E0B4324B324E1D684A
:10EF500099466B425D41314BEDB21C689846634265
:10EF60005C4182B0E4B22E4FB246002D11D0002C8D
:10EF70003CD13C68338801A920000B80FFF7DAFF01
:10EF8000052833D0002826D0FCF766FA0024002D8F
:10EF9000EDD101A8FFF7C8FF05280BD0002820D02D
:10EFA000FCF75AFA002C27D0012401A8FFF7BCFF78
:10EFB0000528F3D1002C19D153466A461B8801A9B4
:10EFC0009380174B1C682000FFF7B4FF05280DD075
:10EFD00001250028D8D1434620001B68984700240B
:10EFE000D5E74B4601981B689847DBE702B01CBC8D
:10EFF00090469946A246F0BD6A46074B01A91B8878
:10F000009380074B1C682000FFF794FF0528B9D1B7
:10F010000124CAE7F81C0020F21C0020FC1C002080
:10F02000F41C002070B504000720002901D08D07D2
:10F0300000D070BD13480160134920000A80134AB4
:10F0400013491360FFF772FF0028F2D10122114B20
:10F0500011491A70C5239B00CB589B0D1A4207D04B
:10F060000E4B5868002805D18023DB030B60E0E7D6
:10F070000B48DEE780211A68C9030A431A600020A2
:10F08000D7E7C046F41C0020F21C0020001D002021
:10F0900039EF0100F01C002000E100E0041D002019
:10F0A0000220000010B5094B1B68002B06D09847C2
:10F0B000002800D110BDFCF7CFF9FBE7044B1B780B
:10F0C000002BF7D0FFF73CFFF4E7C046001D0020FF
:10F0D000F01C002070B5140005000E001422002161
:10F0E0002000FCF7BFF8002301222361237B22804C
:10F0F0009343237326726572002D01D00123A372FE
:10F10000002070BD0020034B82B00193019B02B030
:10F110007047C0467018002000B5054B83B00193BE
:10F12000019B69460093FFF703FF03B000BDC04693
:10F130007018002003210A4802680A430260094847
:10F1400002680A4302600849084A094B9B1A03DD1A
:10F15000043BC858D050FBDCFFF774FEFCF70AF8FC
:10F16000240500405405004084FC01007018002074
:10F17000FC180020FEE7FEE7FEE7FEE7FEE7FEE7FD
:10F18000002243088B4274D303098B425FD3030AE6
:10F190008B4244D3030B8B4228D3030C8B420DD3F9
:10F1A000FF22090212BA030C8B4202D31212090287
:10F1B00065D0030B8B4219D300E0090AC30B8B42C5
:10F1C00001D3CB03C01A5241830B8B4201D38B0373
:10F1D000C01A5241430B8B4201D34B03C01A524118
:10F1E000030B8B4201D30B03C01A5241C30A8B425B
:10F1F00001D3CB02C01A5241830A8B4201D38B0246
:10F20000C01A5241430A8B4201D34B02C01A5241E9
:10F21000030A8B4201D30B02C01A5241CDD2C3095B
:10F220008B4201D3CB01C01A524183098B4201D3D7
:10F230008B01C01A524143098B4201D34B01C01AC2
:10F24000524103098B4201D30B01C01A5241C3083A
:10F250008B4201D3CB00C01A524183088B4201D3A9
:10F260008B00C01A524143088B4201D34B00C01A95
:10F270005241411A00D20146524110467047FFE701
:10F2800001B5002000F0F0F802BDC0460029F7D01B
:10F2900076E7704703460B437FD4002243088B4236
:10F2A00074D303098B425FD3030A8B4244D3030B0D
:10F2B0008B4228D3030C8B420DD3FF22090212BAD2
:10F2C000030C8B4202D31212090265D0030B8B424E
:10F2D00019D300E0090AC30B8B4201D3CB03C01A38
:10F2E0005241830B8B4201D38B03C01A5241430B13
:10F2F0008B4201D34B03C01A5241030B8B4201D303
:10F300000B03C01A5241C30A8B4201D3CB02C01A6D
:10F310005241830A8B4201D38B02C01A5241430AE5
:10F320008B4201D34B02C01A5241030A8B4201D3D4
:10F330000B02C01A5241CDD2C3098B4201D3CB017B
:10F34000C01A524183098B4201D38B01C01A52412A
:10F3500043098B4201D34B01C01A524103098B422E
:10F3600001D30B01C01A5241C3088B4201D3CB0019
:10F37000C01A524183088B4201D38B00C01A5241FC
:10F3800043088B4201D34B00C01A5241411A00D2AC
:10F3900001465241104670475DE0CA0F00D0494215
:10F3A000031000D34042534000229C4603098B4285
:10F3B0002DD3030A8B4212D3FC22890112BA030A0D
:10F3C0008B420CD3890192118B4208D3890192118F
:10F3D0008B4204D389013AD0921100E08909C30914
:10F3E0008B4201D3CB01C01A524183098B4201D316
:10F3F0008B01C01A524143098B4201D34B01C01A01
:10F40000524103098B4201D30B01C01A5241C30878
:10F410008B4201D3CB00C01A524183088B4201D3E7
:10F420008B00C01A5241D9D243088B4201D34B0002
:10F43000C01A5241411A00D20146634652415B1044
:10F44000104601D34042002B00D549427047634625
:10F450005B1000D3404201B5002000F005F802BD6A
:10F460000029F8D016E770477047C046F0B55646F9
:10F4700044465F464D46F0B444024600C70F83B091
:10F480008846650A360EBA463DD0FF2E22D00023AC
:10F49000EC00802599469B46ED0425437F3E43467C
:10F4A0005C025800DB0F640A000E984636D0FF2835
:10F4B00030D080230021E400DB041C437F38301A65
:10F4C0000190484642460843724E800030587A40C8
:10F4D00013008746002D44D108239946063B9B46DE
:10F4E000DDE70122FF2000241A406402C305640AFC
:10F4F000D2071C431443200003B03CBC90469946FD
:10F50000A246AB46F0BD002D20D104239946033B13
:10F510009B46C4E7002C17D1022102E0002C0AD13F
:10F520000121321A01924A4643460A435A48920040
:10F5300082587B409746200000F030FA431F763017
:10F540009C4040420021BAE70321B8E7280000F0C0
:10F5500025FA431F9D4000237630464299469B463C
:10F560009DE70C239946093B9B4698E7802400229F
:10F57000E403FF20B9E70024C2468B465A465346AF
:10F58000022AAED0032A7DD0012A31D101220020E7
:10F590001A400024A9E70122101A1B2856DD1A4040
:10F5A00000200024A1E78023DB031D424BD18023F0
:10F5B000DB032B435C02640A3A00FF2095E76D01F0
:10F5C0006001854230D2019A0024013A01921B2247
:10F5D0000127290064006D00002901DBA84201D841
:10F5E0002D1A3C43013A002AF3D16A1E95412C435F
:10F5F00001987F300028CEDD620704D00F22224020
:10F60000042A00D00434220103D5244A019814406E
:10F610008030FE2800DD64E70122A401640AC0B244
:10F620001A4062E72C00A9E72D1A1A220124CFE71D
:10F630006B02BCD500248023DB031C436402640AF4
:10F640004246FF2051E71C42B3D1F4E721002022BB
:10F65000C140101A8440621E94410C43620704D0DA
:10F660000F222240042A00D00434620104D5012272
:10F6700001201A40002438E70122A401640A1A403C
:10F68000002032E78023DB031C436402640A5246F5
:10F69000FF202AE758FB010098FB0100FFFFFFF75E
:10F6A000F0B557464E4645464300E0B4460288460C
:10F6B000760A1F0EC40F002F47D0FF2F25D000233E
:10F6C00080259A469946F600ED042E437F3F434637
:10F6D00042465D02D20F5B006D0A1B0E904640D081
:10F6E000FF2B39D080220020ED00D20415437F3B50
:10F6F000FB1842465746591C62408C4607430F2F61
:10F700005CD86F49BF00C9598F46002E45D10823E8
:10F710009A46063B9946DAE7424602282DD003284E
:10F7200000D1C3E0012800D0A2E00025002602405D
:10F73000D4B27602ED05760A2E43E4072643300064
:10F740001CBC90469946A246F0BD002E1AD1042357
:10F750009A46033B9946BAE72A00511E8A41901CFB
:10F76000C6E70120002DC3D0280000F017F9431F81
:10F7700076309D4043420020BAE70124FF25144023
:10F780000026D6E7300000F009F9431F9E40002311
:10F79000763047429A46994699E70C239A46093BA8
:10F7A000994694E780260024F603FF25C1E735003B
:10F7B0004846B2E7350022004846AEE72904090C66
:10F7C0000800370C3604360C2C0C79437043674321
:10F7D0007443060C64183619B14203D980214902DA
:10F7E000884647440004000C310409188D01681E46
:10F7F0008541890E2943350CED19AD010D432901D1
:10F8000004D5012369081D4063460D4319007F316B
:10F81000002925DD680704D00F202840042800D0E7
:10F820000435280103D5274980330D401900FE29EE
:10F83000A3DC0124AD016E0A1440CDB279E780202B
:10F84000C003064207D0054205D128434602760A86
:10F850004446FF256DE706437602760AFF2568E7F2
:10F860000124611A1B2905DD14400025002660E7EC
:10F870006346CBE72E002023CE40591A8D406B1EE5
:10F880009D412E43730704D00F233340042B00D037
:10F890000436730104D5012401251440002648E7ED
:10F8A0000124B601760A1440002542E7802601248F
:10F8B000F6032E437602760A1440FF2539E7C04648
:10F8C000D8FB0100FFFFFFF74302590A4300C20FB4
:10F8D0001B0E00207E2B0EDD9D2B0DDC80200004F6
:10F8E0000143952B0BDC9620C31AD9400B005842DC
:10F8F000002A00D118007047034BD018FBE7963B55
:10F9000099400B00F3E7C046FFFFFF7F70B500286A
:10F9100030D0C317C5185D40C40F280000F03EF872
:10F920009E231B1A962B0DDC9622D21A95406A0252
:10F93000520AD8B25202C005520AE40702432243D7
:10F94000100070BD992B19DC9922D21A9540124AE9
:10F950002A40690704D00F210D40042D00D0043245
:10F96000510103D50C4B1A409F231B1A9201520AD6
:10F97000D8B2DFE7002400200022DBE705222E00BA
:10F98000121AB921D6402A00C91A8A40551EAA4126
:10F9900035001543DBE7C046FFFFFFFB1C210123B9
:10F9A0001B04984201D3000C10391B0A984201D362
:10F9B000000A08391B09984201D30009043902A240
:10F9C000105C40187047C0460403020201010101A7
:10F9D0000000000000000000002310B59A4203D090
:10F9E000CC5CC4540133F9E710BD0000F8B5C04643
:10F9F000F8BC08BC9E467047F8B5C046F8BC08BCC9
:10FA00009E46704743000000701800202419002013
:10FA10000000000001000000000098010300000049
:10FA2000F0D401000CD501000CD50100FCD301007D
:10FA300044D40100BED5010002D601009AD50100D0
:10FA4000D2D3010090D30100D2D3010090D30100A2
:10FA5000BED301009AD401009AD401009AD40100C7
:10FA60009AD401009AD4010084D501007CD401000D
:10FA700066D5010048D50100BED30100BED3010008
:10FA800014D8010036D8010036D80100C6D80100CC
:10FA9000FED801008CD90100D2D901003AD9010069
:10FAA00036D7010008D7010036D7010008D701007A
:10FAB00084D8010060D7010060D7010060D7010041
:10FAC00060D7010060D70100B6D70100D4D701008C
:10FAD000A0D8010066D90100FAD70100FAD70100C9
:10FAE000481A0020141A00201C000300B9D201009B
:10FAF0001E000300B9D201006C1A00200A000000A9
:10FB00000900000000009801010000004142434448
:10FB100045464748494A4B4C4D4E4F50515253541D
:10FB200055565758595A6162636465666768696AD1
:10FB30006B6C6D6E6F707172737475767778797A9D
:10FB4000303132333435363738392D5F000000001C
:10FB500001000007AAFE0100BEF50100E2F4010069
:10FB6000A0F5010078F50100A0F501006CF5010099
:10FB7000A0F5010078F50100E2F40100E2F40100D3
:10FB80006CF5010078F5010024F6010024F601006F
:10FB900024F60100A6F50100E2F40100E2F4010000
:10FBA0008CF5010076F501008CF501006CF5010083
:10FBB0008CF5010076F50100E2F40100E2F40100A9
:10FBC0006CF5010076F5010024F6010024F6010031
:10FBD00024F6010030F60100BCF701001AF701001D
:10FBE0001AF7010018F70100AEF70100AEF70100A7
:10FBF000A4F7010018F70100AEF70100A4F7010017
:10FC0000AEF7010018F70100B4F70100B4F70100E6
:10FC1000B4F701003EF80100000000000000000001
:10FC200000000000000000000000000000000000D4
:10FC300000000000000000000000000000000000C4
:10FC400000000000000000000000000000000000B4
:10FC500000000000000000000000000000000000A4
:10FC60000000000000000000000000000000000094
:0CFC700000000000000000000000000088
:08FC7C00F8B4FF7F0100000055
:10FC84000000000018FC010038FC010058FC0100D1
:10FC94000000000000000000000000000000000060
:10FCA40004FA010000000000000000000000000051
:10FCB4000000000000000000000000000000000040
:10FCC4000000000000000000000000000000000030
:10FCD4000000000000000000000000000000000020
:10FCE40001000000020000000300000010EE037297
:10FCF40075752E76692F23202020202020000000F7
:0CFD040039B101000DB101000000000049
:040000031000F135C3
:00000001FF
